:040000008A15BB2979
:100006007B15FB1F0D280130F300F201F101F00111
:08001600FA0DF20CFF300800A6
:02001E000800D8
:0E002000F201F101F001F801F30100300800D7
:08002E00FA1FF2130030080074
:10003600FB14FB1F2528FF30F300F200F100F0004F
:08004600FA0DF20CFF30080076
:10004E00023083120313FC00C830FD00FD0B2D2877
:06005E00FC0B2D28080038
:10006400033083120313FD00FD0B3628000000004B
:02007400080082
:1000760083120317A71B422803138812442803136D
:1000860088160317271B4A28031308124C28031344
:1000960008160317A71A52280313881154280313A6
:1000A60088150317271A5A28031308115C28031307
:1000B60008150317901862280313081464280313FD
:1000C600081088140F2088100317A7196D2803132A
:1000D60088126F2803138816031727197528031328
:1000E60008127728031308160317A7187D28031389
:1000F60088117F28031388150317271885280313EB
:100106000811872803130815031790188D28031361
:1001160008148F280313081088140F20881003175B
:0C012600901C9728272098283220080001
:10013200A1017208031DAE287108F2007008F100D7
:10014200F001A1157208031DAE287108F200F10139
:10015200A111211672080319BC282108F302031DFC
:10016200031CC0280310F21BC428F00DF10DF20D80
:10017200F30BB428C0280130FC001020C72802303D
:0E018200FC000320C7280430FC0017200800F2
:100190007C18FE28FC18CF287C191D29C828A1012D
:1001A0007208031DEF287108F2007008F10078084A
:1001B000F000F801A1157208031DEF287108F20084
:1001C0007008F100F001A11121167208031DEF283B
:1001D0007108F200F101A115720803191129210813
:1001E000F302031D031C15290310F21BFE28F80D52
:1001F000F00DF10DF20DF30BF52815297B1B701C8A
:100200001929F81F1929F00A0319F10A0319F20A2A
:10021000031D1929F20CF10CF00CF30A03191D2926
:1002200019290130FC00102020290230FC00032095
:1002300020290430FC00172020290830FC001B2056
:0402400000000800B2
:100244008312031790102608A7003B20031790146D
:020254000800A0
:1002560083120313F801F9011030FC00710DF80D3B
:10026600F90D7408F8027508031C750FF9020318D6
:1002760043297408F80775080318750FF907031062
:0A028600F00DF10DFC0B312908000A
:100290007B14FB1F5329F201FA1FFF30F200F1001B
:0A02A000F000FA0DF20CFF30080028
:1002AA008312031372087606A100F801F901730894
:1002BA007702031C78297708FD007308F7007D0888
:1002CA00F3007608FD007208F6007D08F200750852
:1002DA00FD007108F5007D08F1007408FD00700842
:1002EA00F4007D08F00077080319F1297208FA0072
:1002FA00F217F61777087302F7000319AB290830CB
:10030A007702031CA129F7007408F9007508F400A4
:10031A007608F500F60108307702031CA129F700D8
:10032A007408F9007508F400F50108307702031C17
:10033A00A1297A08F200F12977080319AB290310D9
:10034A00F60CF50CF40CF90CF70BA429A11FB8292B
:10035A00F909F409F509F609F90A0319F40A03195E
:10036A00F50A0319F60A7908F80774080318740FCE
:10037A00F00775080318750FF10776080318760F4A
:10038A00F207A11BD129031CE129F20CF10CF00C94
:10039A00F80CF30FE129ED290318E529F809F0090A
:1003AA00F109F209F80A0319F00A0319F10A031903
:1003BA00F20A8030FA06E9290130FC00C820F32944
:1003CA000230FC00C820F3290430FC009920F329EC
:1003DA000830FC001B20F3290030FC000000080054
:0C03EA00831203139501171297120800EC
:1003F600831203137008F8007108F0007208F10008
:100406007308F200F301FB01FC019E30F300FA01D0
:10041600F21F192AF809F009F109F209F80A031975
:10042600F00A0319F10A0319F20AFA170230FC005E
:04043600C8200800D2
:10043A0083120313FB01FC01F80173080319952ABF
:10044A007208FA00F2179E30F302F31F852AF309A5
:10045A00F30A08307302031C5A2AF300F80D7008D5
:10046A00F8007108F0007208F100F2010830730216
:10047A00031C5A2AF300F80D7008F8007108F000FE
:10048A00F10108307302031C5A2AF300F80D7008B0
:10049A00F800F00108307302031C5A2AF300F80D21
:1004AA00F8017308031D0310642A73080319642AE8
:1004BA000310F20CF10CF00CF80CF30B5D2A7B1B09
:1004CA00781C722A031C722AF80A0319F00A031903
:1004DA00F10A0319F20AF21B922AFA1F952AF20963
:1004EA00F109F009F809F80A0319F00A0319F10ADF
:1004FA000319F20A952AF201F101F001F801952A8D
:10050A007B14FB1F982AF201FA1F982AF200F100C5
:10051A00F000F800FA0DF20C982A0130FC009A2A31
:10052A000030FC009A2AFF30FC00FC0803199E2ABE
:10053A0048217208F3007108F2007008F100780887
:04054A00F0000800B5
:10054E00B92A803083120317A100CC2AC030A10033
:10055E00CC2A9430A100CC2AD430A100CC2A8030F1
:10056E00A100CC2A831203172108013A0319A82AE5
:10057E002108023A0319AD2A2108033A0319B02AB9
:10058E002108043A0319B32AB62A2203F0002108DF
:10059E00F0077008A1007008A7003B200317901009
:1005AE00A40124082307840000080319E62A24085E
:1005BE00230784000008A6002221A40AD82A90143A
:0205CE00080023
:1005D0008316031388100810081188110812881256
:1005E0008312881008108812081288110811272019
:1005F000272027208815081588140F208810272009
:1006000088140F208810272088140F208810272096
:10061000081188140F208810272088140F208810B4
:100620008811881688140F20881027208812081532
:1006300088140F208810081188140F208810272094
:1006400088140F208810081588140F208810272080
:10065000081188140F2088108816081688150815A8
:0E06600088140F20881027200317901408001C
:0E066E008316031369088A00680882000800DA
:0C067C00831203138030F606552108009D
:1006880083120313FA017308031D7A147708031DF4
:10069800FA147A080319902B033A03195B2B7A187A
:1006A800582BF61F8E2B8C2BF21F8C2B8E2B72083F
:1006B8008039FA00F21376088039F6137A0603199E
:1006C800692B7A0803198C2B8E2B77087302031970
:1006D800702B031C842B882B760872020319772B46
:1006E800031C842B882B7508710203197E2B031CAD
:1006F800842B882B740870020319902B0318882BFD
:10070800FA0803198E2B8C2BFA0803198C2B8E2BC5
:100718000314080003100800031403150800080058
:1007280083120317A401053024020318A22B2408FE
:100738002307840020308000A40A972B240823076D
:1007480084008001A40324082307A5000A30F400CC
:10075800F5012108F0002208F1002B217808F000AB
:100768007908F1003030F007031725088400700875
:1007780080000A30F400F5012108F0002208F10099
:100788002B2170080317A1007108A2000030710620
:10079800031DD02B00307006031DD32BD52BA403CB
:0407A800A72B080073
:1007AC00FB09FA09F909F809F80A0319F90A0319F6
:0807BC00FA0A0319FB0A080008
:1007C400710DF80DF90D7408F8027508031C750F06
:1007D400F902F00DF10D0F30FC00710DF80DF90D5B
:1007E4007408701CFB2BF8027508031C750FF902C2
:1007F400002CF80775080318750FF907F00DF10DB3
:10080400FC0BEF2B70180C2C7408F80775080318F0
:08081400750FF9070000080050
:10081C0083120313FB01FA01F9018030F800F10C8B
:10082C00F00C031C222C7408F90775080318750FBB
:10083C00FA070318FB0A0310F01F2A2C7408FA0796
:10084C0075080318750FFB07FB0CFA0CF90CF80C68
:10085C00031C152C7B08F3007A08F2007908F100D0
:06086C007808F00008000E
:100872007408F8027508031C750FF9027608031C48
:10088200760FFA027708031C770FFB02F30D07308D
:10089200FC00730DF80DF90DFA0DFB0D7408731CB5
:1008A200602CF8027508031C750FF9027608031C08
:1008B200760FFA027708031C770FFB026D2CF807FC
:1008C20075080318750FF90776080318760FFA07EB
:1008D20077080318770FFB07F30DFC0B4A2C720DF8
:1008E200F80DF90DFA0DFB0D7408731C862CF80235
:1008F2007508031C750FF9027608031C760FFA02BD
:100902007708031C770FFB02932CF807750803186E
:10091200750FF90776080318760FFA077708031898
:10092200770FFB07F20D0730FC00720DF80DF90D81
:10093200FA0DFB0D7408721CAC2CF8027508031C2E
:10094200750FF9027608031C760FFA027708031C6A
:10095200770FFB02B92CF80775080318750FF90712
:1009620076080318760FFA0777080318770FFB0744
:10097200F20DFC0B962C710DF80DF90DFA0DFB0D15
:100982007408721CD22CF8027508031C750FF90248
:100992007608031C760FFA027708031C770FFB0216
:1009A200DF2CF80775080318750FF9077608031886
:1009B200760FFA0777080318770FFB07F10D073058
:1009C200FC00710DF80DF90DFA0DFB0D7408711C88
:1009D200F82CF8027508031C750FF9027608031C3F
:1009E200760FFA027708031C770FFB02052DF80732
:1009F20075080318750FF90776080318760FFA07BA
:100A020077080318770FFB07F10DFC0BE22C700D32
:100A1200F80DF90DFA0DFB0D7408711C1E2DF8026C
:100A22007508031C750FF9027608031C760FFA028B
:100A32007708031C770FFB022B2DF80775080318A4
:100A4200750FF90776080318760FFA077708031867
:100A5200770FFB07F00D0730FC00700DF80DF90D54
:100A6200FA0DFB0D7408701C442DF8027508031C66
:100A7200750FF9027608031C760FFA027708031C39
:100A8200770FFB02512DF80775080318750FF90748
:100A920076080318760FFA0777080318770FFB0713
:100AA200F00DFC0B2E2D7018642D7408F8077508D4
:100AB2000318750FF90776080318760FFA077708F7
:080AC2000318770FFB07080081
:100ACA00831203137408003A031D802D7508003A37
:100ADA00031D802D7608003A031D802D7708003A01
:100AEA00031D802DFF30F000FF30F100FF30F200CF
:100AFA007F30F300192E83120313FC01F71BFC0A43
:100B0A00FD01FB01FA01F901F8017308720471048D
:100B1A0070040319142E73087706A000A01BFD09A0
:100B2A00F71FA22DF409F509F609F709F40A0319C2
:100B3A00F50A0319F60A0319F70AF31FAF2DF0098C
:100B4A00F109F209F309F00A0319F10A0319F20A81
:100B5A000319F30A73087704A000A01BD02D3924C7
:100B6A00FC1BED2DFD1F142EF009F109F209F30902
:100B7A00F00A0319F10A0319F20A0319F30AF80928
:100B8A00F909FA09FB09F80A0319F90A0319FA0A11
:100B9A000319FB0A142EF71FE72DF31BE12D730827
:100BAA00FB007208FA007108F9007008F800F301F6
:100BBA00F201F101F001B72DF301F201F101F001A7
:100BCA00F00A0034F309F209F109F009FC17B42D0F
:100BDA00F80A0319F90A0319FA0A0319FB0A74082D
:100BEA007802031DB72D75087902031DB72D760803
:100BFA007A02031DB72D77087B02031DB72DFB016F
:100C0A00FA01F901F801F00A0319F10A0319F20AC3
:100C1A000319F30AF31FB72DA0012016FF34A00110
:0A0C2A007C1C182ED623003E0800A3
:100C340083120313FB0173080319572E7208FA0079
:100C4400F2178E30F302F31F5A2EF309F30A083019
:100C54007302031C3D2EF300F10D7208F100F20142
:100C640008307302031C3D2EF300F10DF1017308EB
:100C7400031D0310452E73080319452E0310F20CAF
:100C8400F10CF30B402E7B1B711C4F2E031C4F2EBB
:100C9400F10A0319F20AF21B662EFA1F692EF209F1
:100CA400F109F10A0319F20A692EF201F101692E20
:100CB4007B14FB1F6C2EF201FA1F6C2EFF30F20026
:100CC400F100FA0DF20C6C2E0130FC006E2E003097
:100CD400FC006E2EFF30FC00FC080319722E482124
:0A0CE4007108F0007208F10008002A
:100CEE00831203137008F8007108F0007208F10007
:100CFE007308F200F301FB01FC019E30F300FA01D0
:080D0E000230FC00C8200800BF
:100D1600831203179C019D0117089E0018089F0067
:100D260080301806F00080307002031D9C2E0030C3
:100D360017020318AA2E01309C0000309D001708E8
:100D4600003C9E001808031C013E9F019F021E08DE
:100D5600A1001F08A2001908A300942306309A00D8
:100D660000309B001B08003C031DBB2E1A08003CEC
:100D76000318D62E1A081907F20001301A02F000DD
:100D86000030031C013E1B02F100700819078400A5
:100D96000008F000720884007008800001309A0292
:100DA600031C9B03B52E19088400203080001C0804
:100DB6001D040319F42E9A019B011A0819078400D1
:100DC6000008203A031DEB2E9A0A03199B0AE02E0F
:100DD60001309A02031C9B031A08190784002D3060
:040DE6008000080081
:100DEA00CE30831603139F005330FD00FD0BFB2EFC
:100DFA00853083129F001F1D032F002F1E08F1004C
:0E0E0A00F00183161E08F0040030F104080009
:100E1800831203132230FC00F801F901FA01FB01E7
:100E2800FC030319422F0310FB0CFA0CF90CF80C05
:100E3800F30CF20CF10CF00C031C142FFC03031937
:100E4800342F7408F80775080318750FF907760822
:100E58000318760FFA0777080318770FFB07182F80
:100E68007408F80775080318750FF907760803184A
:0E0E7800760FFA0777080318770FFB070800BC
:100E8600831203171708F20072088400000803197A
:100E96004E2FF20A472F7208F100F20A1808F000E6
:100EA600980A700884000008F00071088400700831
:100EB60080007108840000080319622F4E2F17085E
:040EC600F000080030
:100ECA00831603131208013EF000F1010318F10A18
:100EDA00831203171708F400F5010E240630F200F6
:100EEA007008F4007108F50072080319812FF50CD7
:100EFA00F40CF513FF3E7A2F0430F1007408F00069
:100F0A00710803198C2FF00D7010FF3E862F3030B8
:100F1A007005F3007408F0007508F100F10CF00C8C
:100F2A00F113F10CF00CF113700895000F309705CE
:060F3A0073089704080093
:100F400037238A110A128000840AE80A0319E90A81
:080F5000F003031DA02F0800AF
:0E0F5800831603130715F03083129705080067
:100F6600831603130711831212150C309704080019
:101000008312031394128A11E8228A150130A70073
:101010008A113B208A150C300317A7008A113B2048
:101020008A1501300317A1000130A2003A30A30055
:101030008A11A7228A150230A1000130A2002E30A9
:10104000A3008A11A7228A152130FC007630FD000A
:10105000FD0B2828FC0B282800000130A7008A116E
:101060003B208A1501300317A1000130A200A030F7
:10107000A3008A11A7228A150230A1000130A20024
:10108000B330A3008A11A7228A152130FC007630E4
:10109000FD00FD0B4928FC0B49280000FF3083169A
:1010A00003138500CE309F00803083129F00FF30F5
:1010B00083168500FC308600831286010B12FB30FC
:1010C00083168700831287019412121492107C30C9
:1010D000831692008A11F5218A15831688138312CC
:1010E00088138817941201300317A7008A113B2038
:1010F0008A1501300317A1000130A2004930A30076
:101100008A11A7228A150230A1000130A2005730AF
:10111000A3008A11A7228A152130FC007630FD0039
:10112000FD0B9028FC0B902800000130A7008A11CD
:101130003B208A1594120030851901308316EE0089
:08114000EF01EC01ED010800D4
:10114800831203171A08F000F101F201F301FF30CE
:10115800F0050030F10570089F007108A0007F308D
:101168007002F2000030031C013E7102F3007208A5
:101178009F007308A00080307306F0008030700272
:10118800031DC828003072020318EE28F401F50187
:10119800F601F7011708F0001808F1001908F20025
:1011A8001A08F3008A1144238A1501300318003005
:1011B800F00070080319E9280030F0000030F10051
:1011C8008030F2007F30F3004F29F001F101F20185
:1011D800F3014F2903172008003C031DF5281F08B9
:1011E800183C031800291708F0001808F10019081E
:1011F800F2001A08F3004F291708F0001808F10048
:101208001908F2001A08F3008A111D228A158A119A
:10121800FB218A15700803179B0071089C0072084F
:101228009D0073089E007008F4007108F5007208AC
:10123800F6007308F7001708F0001808F1001908FD
:10124800F2001A08F3008A1144238A1501300318A2
:101258000030F0007008031946290030F40000300F
:10126800F5000030F6007F30F70003171B08F00088
:101278001C08F1001D08F2001E08F3008A113E2325
:101288008A154F2903171B08F0001C08F1001D08D8
:08129800F2001E08F30008003B
:1012A000831203137408003A031D5F297508003A7E
:1012B000031D5F29FF30F0007F30F100BA2983124F
:1012C0000313FD01F901F8017108700403190034DA
:1012D00071087506FA00FA1BFD09FB01F51F752957
:1012E000F409F509F40A0319F50AF11F7C29F0093C
:1012F000F109F00A0319F10A71087504FA00FA1BE2
:1013000091298A11E2238A157B18A629FD1F003432
:10131000F009F109F00A0319F10AF809F909F80AC4
:101320000319F90A0034F51FA229F11B9E2971083F
:10133000F9007008F800F101F0018629F101F001CF
:10134000F00A0034F109F009FB0A8329F80A0319AD
:10135000F90A74087802031D862975087902031DAD
:101360008629F901F801F00A0319F10AF11F86290B
:061370000000FF3408003C
:101376004624002083166E086F04031DCE29023012
:1013860083120317A1000130A2004130A3008A1185
:10139600A7228A15D929831203170230A10001302A
:1013A600A2006230A3008A11A7228A1503138519A9
:1013B600042A83166C086D04031D042A1130FC00F0
:1013C6003A30FD00FD0BE529FC0BE5290000013054
:1013D60083120317A7008A113B208A1502300317D0
:1013E600A1000130A200AB30A3008A11A7228A1502
:1013F60083160313EE01EF010130EC000030ED001F
:101406002E2A8312851D2E2A83166C086D04031955
:101416002E2A1130FC003A30FD00FD0B102AFC0B81
:10142600102A0000013083120317A7008A113B20FF
:101436008A1502300317A1000130A2002230A30052
:101446008A11A7228A15013083160313EE00003095
:10145600EF00EC01ED018A11F5268A157008EA0005
:101466007108EB000030F200F300FF30F4000030AA
:10147600F5000030F6000030F7008A110C278A15B7
:101486000A30F8007008F4007108F5007208F600DA
:101496007308F70078080319572AF70CF60CF50CB1
:1014A600F40CF713FF3E4E2A7408F0007508F1009D
:1014B6007608F2007708F3008A1177268A157008F5
:1014C60003179700710898007208990073089A002C
:1014D600A4208A111A268A15700803179500710828
:1014E60096000030F11BFF30F200F3006430F40088
:1014F6000030F5000030F6000030F7008A110C27A6
:101506008A15FF30F400F501F601F7018A11652509
:101516008A158A11FB218A1570080317970071082E
:1015260098007208990073089A00A4208A111A2656
:101536008A1570080317970071089800D63099002D
:101546008A118B268A15D63097006E3098008A113C
:1015560043278A157008A3000130A1000730A200B6
:101566008A11A7228A150130A1000130A200D030CD
:10157600A3008A11A7228A1503138518E62B1130BA
:10158600FC003A30FD00FD0BC62AFC0BC62A000003
:10159600031797018A1165278A158A11B3278A15B9
:1015A60003171010831603136E086F040319DF2A3E
:1015B600831206108614E22A8312061486109412E9
:1015C6008A11F5268A157008EA007108EB000030CA
:1015D600F200F300FF30F4000030F5000030F600B2
:1015E6000030F7008A110C278A150A30F8007008B7
:1015F600F4007108F5007208F6007308F700780821
:1016060003190C2BF70CF60CF50CF40CF713FF3E34
:10161600032B7408F0007508F1007608F2007708CD
:10162600F3008A1177268A15700803179700710848
:1016360098007208990073089A00A4208A111A2645
:101646008A15700803179500710896001018972BD5
:101656000130A7008A113B208A1501300317A1002B
:101666000230A200C130A3008A11A7228A15910177
:10167600920180301206F000803016067002031DBB
:10168600462B1508110203187A2B10187A2B11080D
:1016960097008A1165278A15031793019401150887
:1016A600F4001608F500F430F0000130F100502186
:1016B600803003171406F200803071067202031D93
:1016C600662B700813020318762B0430FC003D309D
:1016D600FD00FD0B6C2BFC0B6C2B00000000930A2D
:1016E6000319940A522B910A0319920A3C2B0130D2
:1016F600A7008A113B208A15031710140830A7008B
:101706008A113B208A150C300317A7008A113B204B
:101716008A1501300317A1000130A200E230A300B0
:101726008A11A7228A15292B150897008A11652781
:101736008A156430F0000030F1000030F20000300D
:10174600F30003171508F4001608F5000030F51B22
:10175600FF30F600F7008A110C278A15FF30F400D7
:10176600F501F601F7018A1165258A158A11FB2113
:101776008A15700803179700710898007208990077
:1017860073089A00A4208A111A268A15700803176E
:10179600970071089800DB3099008A118B268A150C
:1017A6000130A1000630A200DB30A3008A11A72277
:1017B6008A1503130519E22B06108610E32BE32A7C
:0A17C6008A11AC278A15BD29E72B14
:10188C00223084004C3083120313F000ED308316A9
:10189C00E8000B30E9008A11A0278A15A0308400DB
:1018AC003B30F000BB308316E8000730E9008A11AA
:1018BC00A0278A156E3084000230F000F6308316B3
:1018CC00E8000730E9008A11A0278A15DB30840074
:1018DC000D30F00039308316E8000C30E9008A1125
:0618EC00A0278A15080088
:100F760043346134723472346534673461346E34A8
:060F860064346F340034F6
:100F8C0048346F3472346134723469346F340034E1
:100F9C0043346F346E346634693467347534723468
:0C0FAC00613463346F34653473340034F6
:100FB800503461347234743469346E3464346F3448
:0E0FC80020344D346F3474346F34723400347E
:0C0FD60053346F34663474343A34003401
:0A0FE2003134323433343434003437
:040FEC002534003474
:1017DA0041346E347434693448346F347234613449
:0817EA00723469346F340034DD
:1017F20064346F342034503472346F34673472344A
:0818020061346D3461340034DF
:0E180A0049346E346934633469346F34003409
:1018180048346F3472346134723469346F3400344C
:1018280043346F346E3466346934673475347234D3
:0C183800613463346F3465347334003461
:1018440043346134723472346534673461346434DB
:061854006134733400341E
:10185A0041346E347434693468346F3472346134A8
:08186A00723469346F3400345C
:0E1872003134323433343434353436340034C7
:0C18800044347534743479343A34003444
:02400E004A2F37
:00000001FF
